:100000000C942A000C943F000C943F000C943F0089
:100010000C943F000C943F000C943F000C943F0064
:100020000C943F000C943F000C943F000C943F0054
:100030000C943F000C943F000C943F000C943F0044
:100040000C943F000C943F000C943F000C943F0034
:100050000C943F0011241FBECFE5D8E0DEBFCDBF1A
:1000600011E0A0E6B0E0E2EAFDE402C005900D92E6
:10007000A23AB107D9F70E94E8160C94CF260C9447
:100080000000EF92FF920F931F937B018C0120E001
:1000900030E040E05FE40E944D0488238CF0C8010A
:1000A000B70120E030E040E05FE40E94B9010E9427
:1000B0000B059B01AC01205030404040504806C029
:1000C000C801B7010E940B059B01AC01B901CA012F
:1000D0001F910F91FF90EF900895A0E0B0E0E3E74B
:1000E000F0E00C949826DC012B01FA019C919230EF
:1000F00008F439C1EB018881823008F433C19430AF
:1001000069F4843009F02FC111969C91119789816F
:10011000981709F428C1AAE8B0E025C1843009F491
:1001200021C18230A9F4923009F01DC19A01AD01BC
:1001300088E0EA010990AE01E90109929E0181502F
:10014000C1F7E201898111969C918923818308C1BD
:10015000923009F407C112962D903C901397EB0151
:100160008A819B811496AD90BD90CD90DC901797BD
:10017000EC80FD800E811F819101281B390BB90194
:1001800037FF04C066277727621B730B6032710547
:100190000CF061C0121613066CF537014801062EEB
:1001A00004C096948794779467940A94D2F721E0D8
:1001B00030E040E050E004C0220F331F441F551FC1
:1001C0006A95D2F721503040404050402E213F21C7
:1001D00040235123211531054105510521F021E02E
:1001E00030E040E050E079018A01E628F72808294C
:1001F00019293CC0232BD1F1260E371E35014601AB
:10020000062E04C096948794779467940A94D2F744
:1002100021E030E040E050E004C0220F331F441FD3
:10022000551F6A95D2F721503040404050402A2156
:100230003B214C215D21211531054105510521F05E
:1002400021E030E040E050E059016A01A628B728DB
:10025000C828D9280BC0821593052CF01C01AA24AC
:10026000BB24650103C0EE24FF24870111969C91F5
:10027000D20111968C91981709F445C0992339F051
:10028000A80197012A193B094C095D0906C0A6017E
:1002900095012E193F09400B510B57FD08C01182E3
:1002A0003382228224833583468357831DC081E0B5
:1002B00081833382228288279927DC01821B930B5A
:1002C000A40BB50B84839583A683B7830DC0220F3F
:1002D000331F441F551F24833583468357838281F0
:1002E000938101979383828324813581468157814D
:1002F000DA01C9010197A109B1098F5F9F4FAF4F83
:10030000BF4328F30BC0918333822282EA0CFB1C8B
:100310000C1D1D1DE482F5820683178383E0808314
:10032000248135814681578157FF1AC0C901AA2708
:1003300097FDA095BA2F81709070A070B0705695FF
:10034000479537952795822B932BA42BB52B848328
:100350009583A683B7838281938101969383828359
:10036000DF0101C0D201CD01CDB7DEB7E2E10C94CF
:10037000B426A0E2B0E0EFEBF1E00C94A426698390
:100380007A838B839C832D833E834F835887E9E058
:10039000EE2EF12CEC0EFD1ECE010196B7010E944F
:1003A000FC068E010F5E1F4FCE010596B8010E941C
:1003B000FC068A8991E089278A8BC701B801AE01C2
:1003C000475E5F4F0E946D000E942706A096E6E000
:1003D0000C94C026A0E2B0E0E0EFF1E00C94A4267B
:1003E00069837A838B839C832D833E834F835887D5
:1003F000F9E0EF2EF12CEC0EFD1ECE010196B701B7
:100400000E94FC068E010F5E1F4FCE010596B801BB
:100410000E94FC06C701B801AE01475E5F4F0E9413
:100420006D000E942706A096E6E00C94C026A0E28C
:10043000B0E0EDE1F2E00C94982669837A838B8337
:100440009C832D833E834F835887CE010196BE0146
:10045000675F7F4F0E94FC06CE010596BE016F5E6E
:100460007F4F0E94FC069985923088F089898230FE
:10047000C8F0943019F4823051F404C0843029F467
:10048000923081F48AE890E0C6C0923049F420E0CE
:100490009A858A89981321E02A87CE010996BBC0E4
:1004A000823049F420E09A858A89981321E02A8BCA
:1004B000CE014196B0C02D843E844F8458886D880B
:1004C0007E888F88988CEE24FF248701AA24BB2481
:1004D000650140E050E060E070E0E0E0F0E0C10184
:1004E00081709070892BE9F0E60CF71C081D191D2E
:1004F0009A01AB012A0D3B1D4C1D5D1D80E090E073
:10050000A0E0B0E0E614F7040805190520F481E046
:1005100090E0A0E0B0E0BA01A901480F591F6A1F9E
:100520007B1FAA0CBB1CCC1CDD1C97FE08C081E005
:1005300090E0A0E0B0E0A82AB92ACA2ADB2A3196C6
:10054000E032F10549F0660C771C881C991C569422
:10055000479437942794C3CFFA85EA892B893C893D
:100560008B859C85280F391F2E5F3F4F17C0CA010E
:1005700081709070892B61F016950795F794E79438
:1005800080E090E0A0E0B0E8E82AF92A0A2B1B2BD3
:1005900076956795579547952F5F3F4F77FDE7CF46
:1005A0000CC0440F551F661F771F17FD4160EE0CEE
:1005B000FF1C001F111F21503040403090E05907B0
:1005C00090E0690790E4790760F32B8F3C8FDB01A3
:1005D000CA018F779070A070B07080349105A1052A
:1005E000B10561F447FD0AC0E114F10401051105EC
:1005F00029F0405C5F4F6F4F7F4F40781A8EFE1797
:1006000011F081E08A8F4D8F5E8F6F8F78A383E02A
:10061000898FCE0149960E942706A096E2E10C94AC
:10062000B426A8E1B0E0E7E1F3E00C94A0266983EA
:100630007A838B839C832D833E834F835887B9E0D5
:10064000EB2EF12CEC0EFD1ECE010196B7010E949F
:10065000FC068E010F5E1F4FCE010596B8010E9469
:10066000FC062985223008F47EC03989323010F426
:10067000B8017CC08A859A8989278A87243011F03D
:10068000223031F4231709F06EC06AE870E06EC0C2
:10069000343039F41D861E861F86188A1C861B86F8
:1006A00004C0323021F484E08987B7015FC02B8514
:1006B0003C858B899C89281B390B3C872B87ED84D3
:1006C000FE840F851889AD88BE88CF88D88CEA143F
:1006D000FB040C051D0540F4EE0CFF1C001F111F50
:1006E000215030403C872B8720E030E040E050E054
:1006F00080E090E0A0E0B0E460E070E0EA14FB0489
:100700000C051D0540F0282B392B4A2B5B2BEA18D2
:10071000FB080C091D09B695A79597958795EE0CD2
:10072000FF1C001F111F6F5F7F4F6F31710531F785
:10073000DA01C9018F779070A070B0708034910594
:10074000A105B10561F427FD0AC0E114F10401051A
:10075000110529F0205C3F4F4F4F5F4F20782D87C8
:100760003E874F87588BBE01675F7F4FCB010E944A
:1007700027066896EAE00C94BC26A8E1B0E0E3EC1A
:10078000F3E00C94A42669837A838B839C832D8366
:100790003E834F83588789E0E82EF12CEC0EFD1E36
:1007A000CE010196B7010E94FC068E010F5E1F4F1D
:1007B000CE010596B8010E94FC068985823040F082
:1007C0008989823028F0C701B8010E94740701C0EE
:1007D00081E06896E6E00C94C026A8E1B0E0E3EF83
:1007E000F3E00C94A42669837A838B839C832D8306
:1007F0003E834F83588789E0E82EF12CEC0EFD1ED6
:10080000CE010196B7010E94FC068E010F5E1F4FBC
:10081000CE010596B8010E94FC068985823040F021
:100820008989823028F0C701B8010E94740701C08D
:1008300081E06896E6E00C94C026A8E1B0E0E3E22F
:10084000F4E00C94A42669837A838B839C832D83A4
:100850003E834F83588789E0E82EF12CEC0EFD1E75
:10086000CE010196B7010E94FC068E010F5E1F4F5C
:10087000CE010596B8010E94FC068985823040F0C1
:100880008989823028F0C701B8010E94740701C02D
:100890008FEF6896E6E00C94C026A8E1B0E0E3E5AF
:1008A000F4E00C94A42669837A838B839C832D8344
:1008B0003E834F83588789E0E82EF12CEC0EFD1E15
:1008C000CE010196B7010E94FC068E010F5E1F4FFC
:1008D000CE010596B8010E94FC068985823040F061
:1008E0008989823028F0C701B8010E94740701C0CD
:1008F0008FEF6896E6E00C94C026A8E1B0E0E3E84C
:10090000F4E00C94A42669837A838B839C832D83E3
:100910003E834F83588789E0E82EF12CEC0EFD1EB4
:10092000CE010196B7010E94FC068E010F5E1F4F9B
:10093000CE010596B8010E94FC068985823040F000
:100940008989823028F0C701B8010E94740701C06C
:1009500081E06896E6E00C94C026A8E0B0E0E3EB06
:10096000F4E00C94A1269B01AC0183E08983DA01B9
:10097000C9018827B7FD83959927AA27BB27B82ED9
:10098000211531054105510519F482E089833AC0EA
:100990008823A9F0203080E0380780E0480780E80D
:1009A000580729F460E070E080E09FEC30C0EE244E
:1009B000FF248701E21AF30A040B150B02C0790128
:1009C0008A018EE1C82ED12CDC82CB82ED82FE82A0
:1009D0000F831887C801B7010E94D8050197181620
:1009E000190684F4082E04C0EE0CFF1C001F111F12
:1009F0000A94D2F7ED82FE820F831887C81AD90AAB
:100A0000DC82CB82BA82CE0101960E94270628960C
:100A1000E9E00C94BD26ACE0B0E0E1E1F5E00C9437
:100A2000A82669837A838B839C83CE010196BE01BD
:100A30006B5F7F4F0E94FC068D81823061F18230B6
:100A400050F1843021F48E81882351F12EC02F8102
:100A5000388537FD20C06E812F3131051CF06623AB
:100A6000F9F023C08EE190E0821B930B29853A8533
:100A70004B855C8504C056954795379527958A9593
:100A8000D2F76623B1F050954095309521953F4FB0
:100A90004F4F5F4F0EC020E030E040E050E009C013
:100AA0002FEF3FEF4FEF5FE704C020E030E040E082
:100AB00050E8B901CA012C96E2E00C94C426A8E0E3
:100AC000B0E0E5E6F5E00C94A0267B018C01611511
:100AD00071058105910519F482E0898360C083E086
:100AE00089838EE1C82ED12CDC82CB82ED82FE82FE
:100AF0000F831887C801B7010E94D805FC01319700
:100B0000F7FF3BC0222733272E1B3F0B57016801FD
:100B1000022E04C0D694C794B794A7940A94D2F72F
:100B200040E050E060E070E081E090E0A0E0B0E004
:100B300004C0880F991FAA1FBB1F2A95D2F70197DF
:100B4000A109B1098E219F21A023B1230097A105FE
:100B5000B10521F041E050E060E070E04A295B29F6
:100B60006C297D294D835E836F8378878EE190E0C9
:100B70008E1B9F0B9C838B8312C0309781F00E2EAF
:100B800004C0EE0CFF1C001F111F0A94D2F7ED8267
:100B9000FE820F831887CE1ADF0ADC82CB821A828C
:100BA000CE0101960E9427062896EAE00C94BC2606
:100BB000EF92FF920F931F937B018C0180E0E81668
:100BC00080E0F80681E0080780E0180788F48FEFDE
:100BD000E816F1040105110531F028F088E090E0F5
:100BE000A0E0B0E017C080E090E0A0E0B0E012C06C
:100BF00080E0E81680E0F80680E0080781E018074A
:100C000028F088E190E0A0E0B0E004C080E190E04E
:100C1000A0E0B0E020E230E040E050E0281B390BDB
:100C20004A0B5B0B04C016950795F794E7948A95D9
:100C3000D2F7F701EE56FF4F8081281B3109410999
:100C40005109C9011F910F91FF90EF900895DF9214
:100C5000EF92FF920F931F93FC01E480F5800681D1
:100C60001781D1808081823048F480E090E0A0E15B
:100C7000B0E0E82AF92A0A2B1B2BA5C0843009F41E
:100C80009FC0823021F4EE24FF24870105C0E114C7
:100C9000F1040105110519F4E0E0F0E096C062816D
:100CA00073819FEF623879070CF05BC022E83FEF59
:100CB000261B370B2A3131052CF020E030E040E0D4
:100CC00050E02AC0B801A701022E04C076956795AE
:100CD000579547950A94D2F781E090E0A0E0B0E004
:100CE00004C0880F991FAA1FBB1F2A95D2F701972E
:100CF000A109B1098E219F21A023B1230097A1054D
:100D0000B10521F081E090E0A0E0B0E09A01AB01F4
:100D1000282B392B4A2B5B2BDA01C9018F77907076
:100D2000A070B07080349105A105B10539F427FF9A
:100D300009C0205C3F4F4F4F5F4F04C0215C3F4FC5
:100D40004F4F5F4FE0E0F0E02030A0E03A07A0E036
:100D50004A07A0E45A0710F0E1E0F0E079018A01C7
:100D600027C06038710564F5FB01E158FF4FD801D9
:100D7000C7018F779070A070B07080349105A10585
:100D8000B10539F4E7FE0DC080E490E0A0E0B0E0EA
:100D900004C08FE390E0A0E0B0E0E80EF91E0A1F67
:100DA0001B1F17FF05C016950795F794E79431961A
:100DB00087E016950795F794E7948A95D1F705C0D3
:100DC000EE24FF248701EFEFF0E06E2F6795662792
:100DD0006795902F9F77D794DD24D7948E2F869593
:100DE000492F462B582F5D29B701CA011F910F913A
:100DF000FF90EF90DF900895FC01DB01408151816D
:100E00002281622F6F7770E0221F2227221F938199
:100E1000892F880F822B282F30E0991F9927991F3F
:100E200011969C93119721153105A9F5411551058E
:100E30006105710511F482E037C082E89FEF1396D7
:100E40009C938E9312979A01AB0167E0220F331F98
:100E5000441F551F6A95D1F783E08C930DC0220F74
:100E6000331F441F551F12968D919C911397019724
:100E700013969C938E931297203080E0380780E081
:100E8000480780E4580758F314962D933D934D93EB
:100E90005C93179708952F3F310579F4411551055B
:100EA0006105710519F484E08C93089564FF03C013
:100EB00081E08C9312C01C9210C02F5730401396C3
:100EC0003C932E93129783E08C9387E0440F551F39
:100ED000661F771F8A95D1F7706414964D935D93C2
:100EE0006D937C93179708951F93DC01FB019C91F0
:100EF000923008F447C08081823008F443C09430B7
:100F000051F411961C91843099F58181682F70E01D
:100F1000611B71093FC0843021F0923031F482307E
:100F2000B9F18181882389F12DC011961C91119707
:100F30008230F1F081811817D9F412962D913C91ED
:100F40001397828193818217930794F028173907AA
:100F5000BCF014968D919D910D90BC91A02D248193
:100F6000358146815781281739074A075B0718F4EE
:100F7000112341F00AC082179307A407B50740F474
:100F8000112319F061E070E005C06FEF7FEF02C040
:100F900060E070E0CB011F910895DF93CF93CDB750
:100FA000DEB727970FB6F894DEBF0FBECDBF89839B
:100FB0006A834B838B81813009F06FC08981282F30
:100FC00030E03F832E838E819F818130910549F1EE
:100FD0002E813F81223031052CF48E819F81009734
:100FE00061F0D2C02E813F812230310571F18E81B6
:100FF0009F8183309105E9F1C7C0AAE3B0E0EAE33D
:10100000F0E08081482F8A81282F30E081E090E055
:10101000022E02C0880F991F0A94E2F7842B8C934A
:10102000B3C0A7E3B0E0E7E3F0E08081482F8A8116
:10103000282F30E081E090E0022E02C0880F991F37
:101040000A94E2F7842B8C939FC0A4E3B0E0E4E31E
:10105000F0E08081482F8A81282F30E081E090E005
:10106000022E02C0880F991F0A94E2F7842B8C93FA
:101070008BC0A1E3B0E0E1E3F0E08081482F8A81FA
:10108000282F30E081E090E0022E02C0880F991FE7
:101090000A94E2F7842B8C9377C08B81882309F024
:1010A00073C08981282F30E03D832C838C819D8102
:1010B0008130910559F12C813D81223031052CF48C
:1010C0008C819D81009769F05FC02C813D81223029
:1010D000310589F18C819D818330910509F440C0EF
:1010E00053C0AAE3B0E0EAE3F0E08081482F8A81B0
:1010F000282F30E081E090E0022E02C0880F991F77
:101100000A94E2F7809584238C933EC0A7E3B0E075
:10111000E7E3F0E08081482F8A81282F30E081E0EA
:1011200090E0022E02C0880F991F0A94E2F7809582
:1011300084238C9329C0A4E3B0E0E4E3F0E0808151
:10114000482F8A81282F30E081E090E0022E02C0F3
:10115000880F991F0A94E2F7809584238C9314C01A
:10116000A1E3B0E0E1E3F0E08081482F8A81282FFD
:1011700030E081E090E0022E02C0880F991F0A94AF
:10118000E2F7809584238C9327960FB6F894DEBF00
:101190000FBECDBFCF91DF910895DF93CF93CDB731
:1011A000DEB727970FB6F894DEBF0FBECDBF898399
:1011B0006A834B838B81813009F06FC08981282F2E
:1011C00030E03F832E838E819F818130910549F1EC
:1011D0002E813F81223031052CF48E819F81009732
:1011E00061F0D2C02E813F812230310571F18E81B4
:1011F0009F8183309105E9F1C7C0ABE3B0E0EBE339
:10120000F0E08081482F8A81282F30E081E090E053
:10121000022E02C0880F991F0A94E2F7842B8C9348
:10122000B3C0A8E3B0E0E8E3F0E08081482F8A8112
:10123000282F30E081E090E0022E02C0880F991F35
:101240000A94E2F7842B8C939FC0A5E3B0E0E5E31A
:10125000F0E08081482F8A81282F30E081E090E003
:10126000022E02C0880F991F0A94E2F7842B8C93F8
:101270008BC0A2E3B0E0E2E3F0E08081482F8A81F6
:10128000282F30E081E090E0022E02C0880F991FE5
:101290000A94E2F7842B8C9377C08B81882309F022
:1012A00073C08981282F30E03D832C838C819D8100
:1012B0008130910559F12C813D81223031052CF48A
:1012C0008C819D81009769F05FC02C813D81223027
:1012D000310589F18C819D818330910509F440C0ED
:1012E00053C0ABE3B0E0EBE3F0E08081482F8A81AC
:1012F000282F30E081E090E0022E02C0880F991F75
:101300000A94E2F7809584238C933EC0A8E3B0E072
:10131000E8E3F0E08081482F8A81282F30E081E0E7
:1013200090E0022E02C0880F991F0A94E2F7809580
:1013300084238C9329C0A5E3B0E0E5E3F0E080814D
:10134000482F8A81282F30E081E090E0022E02C0F1
:10135000880F991F0A94E2F7809584238C9314C018
:10136000A2E3B0E0E2E3F0E08081482F8A81282FF9
:1013700030E081E090E0022E02C0880F991F0A94AD
:10138000E2F7809584238C9327960FB6F894DEBFFE
:101390000FBECDBFCF91DF910895DF93CF9300D0E3
:1013A00000D00F92CDB7DEB78A836B838A81282F56
:1013B00030E03D832C834C815D814130510541F10A
:1013C0008C819D818230910534F42C813D812115E1
:1013D000310561F052C04C815D814230510551F1BF
:1013E0008C819D8183309105B9F147C0E9E3F0E03C
:1013F0008081282F30E08B81882F90E0A90102C0E6
:10140000559547958A95E2F7CA018170898335C061
:10141000E6E3F0E08081282F30E08B81882F90E098
:10142000A90102C0559547958A95E2F7CA018170D6
:10143000898323C0E3E3F0E08081282F30E08B81B3
:10144000882F90E0A90102C0559547958A95E2F74B
:10145000CA018170898311C0E0E3F0E08081282F08
:1014600030E08B81882F90E0A90102C05595479507
:101470008A95E2F7CA018170898389810F900F9064
:101480000F900F900F90CF91DF910895DF93CF933E
:1014900000D000D0CDB7DEB789836A838981282F39
:1014A00030E03C832B838B819C818130910549F115
:1014B0002B813C81223031052CF48B819C8100975B
:1014C00061F05AC02B813C812230310571F18B8152
:1014D0009C8183309105E9F14FC0ABE3B0E0EBE3D1
:1014E000F0E08081482F8A81282F30E081E090E071
:1014F000022E02C0880F991F0A94E2F784278C936A
:101500003BC0A8E3B0E0E8E3F0E08081482F8A81A7
:10151000282F30E081E090E0022E02C0880F991F52
:101520000A94E2F784278C9327C0A5E3B0E0E5E3B3
:10153000F0E08081482F8A81282F30E081E090E020
:10154000022E02C0880F991F0A94E2F784278C9319
:1015500013C0A2E3B0E0E2E3F0E08081482F8A818B
:10156000282F30E081E090E0022E02C0880F991F02
:101570000A94E2F784278C930F900F900F900F90AE
:10158000CF91DF910895DF93CF9300D000D0CDB7F6
:10159000DEB789836A838981282F30E03C832B83DF
:1015A0008B819C8181309105D1F02B813C8122304F
:1015B00031052CF48B819C81009761F01EC02B813A
:1015C0003C812230310581F08B819C8183309105F3
:1015D00081F013C0EBE3F0E08A8180830EC0E8E382
:1015E000F0E08A81808309C0E5E3F0E08A818083AE
:1015F00004C0E2E3F0E08A8180830F900F900F90A7
:101600000F90CF91DF910895DF93CF9300D000D05A
:10161000CDB7DEB789836A838981282F30E03C8388
:101620002B838B819C8181309105D1F02B813C8172
:10163000223031052CF48B819C81009761F01EC013
:101640002B813C812230310581F08B819C8183305C
:10165000910581F013C0EAE3F0E08A8180830EC037
:10166000E7E3F0E08A81808309C0E4E3F0E08A8167
:10167000808304C0E1E3F0E08A8180830F900F90C3
:101680000F900F90CF91DF910895DF93CF930F923A
:10169000CDB7DEB78983898160EF0E94040B898111
:1016A0006FEF0E94C30A0F90CF91DF910895DF93EF
:1016B000CF93CDB7DEB763970FB6F894DEBF0FBEFA
:1016C000CDBF8B8B8FE78A8B81E0898B188AB2C064
:1016D0008889982F9C5F8B89692F40E00E94CD08F4
:1016E0001F8699C08B896F850E94CD09898B898956
:1016F000882309F08DC08F85482F50E08889282FD6
:1017000030E0CA01880F991F880F991F820F931F1D
:10171000FC01EE56FE4F80818A8B05C08B896F8558
:101720000E94CD09898B89898823C1F380E090E0EC
:10173000A0E0B1E48B879C87AD87BE876B857C85F5
:101740008D859E8520E030E04AEF54E40E94170228
:10175000DC01CB018F839887A987BA876F81788551
:1017600089859A8520E030E040E85FE30E947D04AF
:1017700088232CF481E090E09E838D833FC06F81AD
:10178000788589859A8520E03FEF4FE757E40E94EE
:101790001D0418164CF56B857C858D859E8520E093
:1017A00030E040E251E40E941702DC01CB01BC01B1
:1017B000CD010E944100DC01CB019E838D830FC0CF
:1017C00088EC90E09C838B838B819C810197F1F75F
:1017D0009C838B838D819E8101979E838D838D81D8
:1017E0009E81009769F714C06F81788589859A85F5
:1017F0000E944100DC01CB019E838D838D819E81FF
:101800009A83898389819A810197F1F79A838983E1
:101810008F858F5F8F878F85843008F463CF8889A9
:10182000982F9C5F8B89692F41E00E94CD088889A1
:101830008F5F888B8889843008F44ACF8A896396C1
:101840000FB6F894DEBF0FBECDBFCF91DF910895E4
:10185000DF93CF93CDB7DEB7E8970FB6F894DEBF2E
:101860000FBECDBF82E06FEF0E94040B83E060E00B
:1018700041E00E94CD0783E061E041E00E94CD0796
:1018800083E062E041E00E94CD0780E090E0ACE0C0
:10189000B2E48DAB9EABAFABB8AF6DA97EA98FA9FB
:1018A00098AD20E030E04AEF54E40E941702DC01DA
:1018B000CB0189AB9AABABABBCAB69A97AA98BA9BD
:1018C0009CA920E030E040E85FE30E947D0488238B
:1018D0002CF481E090E098AB8FA73FC069A97AA96A
:1018E0008BA99CA920E03FEF4FE757E40E941D041D
:1018F00018164CF56DA97EA98FA998AD20E030E0AF
:1019000040E251E40E941702DC01CB01BC01CD0191
:101910000E944100DC01CB0198AB8FA70FC088EC7F
:1019200090E09EA78DA78DA59EA50197F1F79EA794
:101930008DA78FA598A9019798AB8FA78FA598A978
:10194000009769F714C069A97AA98BA99CA90E947C
:101950004100DC01CB0198AB8FA78FA598A99CA76C
:101960008BA78BA59CA50197F1F79CA78BA782E07D
:101970000E94320F88E30E94320F80E090E0A0E8DE
:10198000BFE38FA398A7A9A7BAA76FA178A589A538
:101990009AA520E030E04AEF54E40E941702DC01EF
:1019A000CB018BA39CA3ADA3BEA36BA17CA18DA1F6
:1019B0009EA120E030E040E85FE30E947D048823A0
:1019C0002CF481E090E09AA389A33FC06BA17CA195
:1019D0008DA19EA120E03FEF4FE757E40E941D0438
:1019E00018164CF56FA178A589A59AA520E030E0DE
:1019F00040E251E40E941702DC01CB01BC01CD01A1
:101A00000E944100DC01CB019AA389A30FC088EC9E
:101A100090E098A38F8F8F8D98A10197F1F798A3ED
:101A20008F8F89A19AA101979AA389A389A19AA1CD
:101A3000009769F714C06BA17CA18DA19EA10E94A3
:101A40004100DC01CB019AA389A389A19AA19E8FB1
:101A50008D8F8D8D9E8D0197F1F79E8F8D8F8FE0ED
:101A60000E94320F80E090E0A0E8BFE3898F9A8F58
:101A7000AB8FBC8F698D7A8D8B8D9C8D20E030E093
:101A80004AEF54E40E941702DC01CB018D8B9E8B40
:101A9000AF8BB88F6D897E898F89988D20E030E07B
:101AA00040E85FE30E947D0488232CF481E090E00D
:101AB0009C8B8B8B3FC06D897E898F89988D20E0B0
:101AC0003FEF4FE757E40E941D0418164CF5698D4F
:101AD0007A8D8B8D9C8D20E030E040E251E40E94B5
:101AE0001702DC01CB01BC01CD010E944100DC01E9
:101AF000CB019C8B8B8B0FC088EC90E09A8B898BF1
:101B000089899A890197F1F79A8B898B8B899C89AE
:101B100001979C8B8B8B8B899C89009769F714C0EC
:101B20006D897E898F89988D0E944100DC01CB01EF
:101B30009C8B8B8B8B899C89988B8F878F859889C1
:101B40000197F1F7988B8F8781E00E94320F80E038
:101B500090E0A0E0B0E48B879C87AD87BE876B8563
:101B60007C858D859E8520E030E04AEF54E40E941C
:101B70001702DC01CB018F839887A987BA876F8111
:101B8000788589859A8520E030E040E85FE30E940F
:101B90007D0488232CF481E090E09E838D833FC0F8
:101BA0006F81788589859A8520E03FEF4FE757E47C
:101BB0000E941D0418164CF56B857C858D859E85CD
:101BC00020E030E040E251E40E941702DC01CB014A
:101BD000BC01CD010E944100DC01CB019E838D83BD
:101BE0000FC088EC90E09C838B838B819C81019754
:101BF000F1F79C838B838D819E8101979E838D83DA
:101C00008D819E81009769F714C06F8178858985E1
:101C10009A850E944100DC01CB019E838D838D81DA
:101C20009E819A83898389819A810197F1F79A83AA
:101C30008983E8960FB6F894DEBF0FBECDBFCF9173
:101C4000DF910895DF93CF93CDB7DEB76D970FB6D1
:101C5000F894DEBF0FBECDBF8D8F83E060E041E022
:101C60000E94CD0883E061E040E00E94CD0882E060
:101C70006D8D0E94C30A83E062E041E00E94CD08BE
:101C800080E090E0A0E8BFE3898F9A8FAB8FBC8F94
:101C9000698D7A8D8B8D9C8D20E030E04AEF54E485
:101CA0000E941702DC01CB018D8B9E8BAF8BB88F0E
:101CB0006D897E898F89988D20E030E040E85FE370
:101CC0000E947D0488232CF481E090E09C8B8B8B18
:101CD0003FC06D897E898F89988D20E03FEF4FE767
:101CE00057E40E941D0418164CF5698D7A8D8B8D72
:101CF0009C8D20E030E040E251E40E941702DC01BC
:101D0000CB01BC01CD010E944100DC01CB019C8BC9
:101D10008B8B0FC088EC90E09A8B898B89899A898C
:101D20000197F1F79A8B898B8B899C8901979C8B02
:101D30008B8B8B899C89009769F714C06D897E898C
:101D40008F89988D0E944100DC01CB019C8B8B8B8D
:101D50008B899C89988B8F878F8598890197F1F75C
:101D6000988B8F8783E062E040E00E94CD0880E09E
:101D700090E0A0E0B0E48B879C87AD87BE876B8541
:101D80007C858D859E8520E030E04AEF54E40E94FA
:101D90001702DC01CB018F839887A987BA876F81EF
:101DA000788589859A8520E030E040E85FE30E94ED
:101DB0007D0488232CF481E090E09E838D833FC0D6
:101DC0006F81788589859A8520E03FEF4FE757E45A
:101DD0000E941D0418164CF56B857C858D859E85AB
:101DE00020E030E040E251E40E941702DC01CB0128
:101DF000BC01CD010E944100DC01CB019E838D839B
:101E00000FC088EC90E09C838B838B819C81019731
:101E1000F1F79C838B838D819E8101979E838D83B7
:101E20008D819E81009769F714C06F8178858985BF
:101E30009A850E944100DC01CB019E838D838D81B8
:101E40009E819A83898389819A810197F1F79A8388
:101E500089836D960FB6F894DEBF0FBECDBFCF91CC
:101E6000DF910895DF93CF93CDB7DEB76D970FB6AF
:101E7000F894DEBF0FBECDBF8D8F83E060E040E001
:101E80000E94CD0883E061E040E00E94CD0882E03E
:101E90006D8D0E94C30A83E062E041E00E94CD089C
:101EA00080E090E0A0E8BFE3898F9A8FAB8FBC8F72
:101EB000698D7A8D8B8D9C8D20E030E04AEF54E463
:101EC0000E941702DC01CB018D8B9E8BAF8BB88FEC
:101ED0006D897E898F89988D20E030E040E85FE34E
:101EE0000E947D0488232CF481E090E09C8B8B8BF6
:101EF0003FC06D897E898F89988D20E03FEF4FE745
:101F000057E40E941D0418164CF5698D7A8D8B8D4F
:101F10009C8D20E030E040E251E40E941702DC0199
:101F2000CB01BC01CD010E944100DC01CB019C8BA7
:101F30008B8B0FC088EC90E09A8B898B89899A896A
:101F40000197F1F79A8B898B8B899C8901979C8BE0
:101F50008B8B8B899C89009769F714C06D897E896A
:101F60008F89988D0E944100DC01CB019C8B8B8B6B
:101F70008B899C89988B8F878F8598890197F1F73A
:101F8000988B8F8783E062E040E00E94CD0880E07C
:101F900090E0A0E0B0E48B879C87AD87BE876B851F
:101FA0007C858D859E8520E030E04AEF54E40E94D8
:101FB0001702DC01CB018F839887A987BA876F81CD
:101FC000788589859A8520E030E040E85FE30E94CB
:101FD0007D0488232CF481E090E09E838D833FC0B4
:101FE0006F81788589859A8520E03FEF4FE757E438
:101FF0000E941D0418164CF56B857C858D859E8589
:1020000020E030E040E251E40E941702DC01CB0105
:10201000BC01CD010E944100DC01CB019E838D8378
:102020000FC088EC90E09C838B838B819C8101970F
:10203000F1F79C838B838D819E8101979E838D8395
:102040008D819E81009769F714C06F81788589859D
:102050009A850E944100DC01CB019E838D838D8196
:102060009E819A83898389819A810197F1F79A8366
:1020700089836D960FB6F894DEBF0FBECDBFCF91AA
:10208000DF910895DF93CF9300D00F92CDB7DEB7E5
:102090009B838A8319820EC08981282F30E08A8130
:1020A0009B81FC01E20FF31F80810E94220E898137
:1020B0008F5F89838981282F30E08A819B81FC0191
:1020C000E20FF31F8081882339F70F900F900F9054
:1020D000CF91DF910895DF93CF93CDB7DEB76097AF
:1020E0000FB6F894DEBF0FBECDBF6D877E878F879A
:1020F000988B8D859E85AF85B889BB2394F48DE23E
:102100000E94220E8D859E85AF85B889B095A095D9
:10211000909581959F4FAF4FBF4F8D879E87AF871B
:10212000B88B8D859E85AF85B8890097A105B105CF
:1021300019F480E30E94220E19822EC08D859E859F
:10214000AF85B8892AE030E040E050E0BC01CD0125
:102150000E945B26DC01CB018A838981282F30E035
:10216000CE010396FC01E20FF31F8A8180838981EF
:102170008F5F89838D859E85AF85B8892AE030E0A1
:1021800040E050E0BC01CD010E945B26DA01C901AC
:102190008D879E87AF87B88B8D859E85AF85B889E3
:1021A000181619061A061B064CF20FC089818150B9
:1021B00089838981282F30E0CE010396FC01E20F4C
:1021C000F31F8081805D0E94220E8981882371F730
:1021D00060960FB6F894DEBF0FBECDBFCF91DF91F2
:1021E0000895DF93CF93CDB7DEB762970FB6F8941B
:1021F000DEBF0FBECDBF6F87788B898B9A8B6F85C3
:10220000788989899A8920E030E040E050E00E9496
:102210007D0488237CF46F85788989899A8920E0F8
:1022200030E040E85FEB0E941D0418161CF48DE2BC
:102230000E94220E6F85788989899A890E940B05F0
:10224000DC01CB01BC01CD010E94AD049B01AC01BE
:102250006F85788989899A890E94B901DC01CB014F
:102260008B879C87AD87BE876F85788989899A8996
:102270000E940B05DC01CB01BC01CD010E946B105B
:102280006B857C858D859E8520E030E040E050E0C8
:102290000E94BD03882309F46DC08EE20E94220EC5
:1022A0006B857C858D859E8520E030E04AE754E48F
:1022B0000E941702DC01CB01BC01CD010E9441004C
:1022C000DC01CB018F839887A987BA878F81988596
:1022D000A985BA85BB237CF48F819885A985BA85A9
:1022E000B095A095909581959F4FAF4FBF4F8F832D
:1022F0009887A987BA878F819885A985BA858B83A6
:102300009C83AD83BE831A8215C08A818F5F8A83C6
:102310008F819885A985BA852AE030E040E050E0B9
:10232000BC01CD010E945B26DA01C9018F83988729
:10233000A987BA878F819885A985BA850097A10555
:10234000B10519F783E0898309C060E070E080E09F
:1023500090E00E946B1089818150898399818A81E4
:10236000891798F38B819C81AD81BE81BC01CD0121
:102370000E946B1062960FB6F894DEBF0FBECDBF01
:10238000CF91DF910895DF93CF93CDB7DEB788E18A
:102390000E94320FCF91DF910895DF93CF93CDB795
:1023A000DEB781E00E94320FCF91DF910895DF9375
:1023B000CF93CDB7DEB782E00E94320FCF91DF918D
:1023C0000895DF93CF93CDB7DEB78CE10E94320F33
:1023D000CF91DF910895DF93CF93CDB7DEB784E13E
:1023E0000E94320FCF91DF910895DF93CF93CDB745
:1023F000DEB780E10E94320FCF91DF910895DF9325
:10240000CF9300D000D0CDB7DEB789836A838981AE
:10241000282F30E03C832B838B819C81009731F007
:102420002B813C812130310531F009C08A818058EF
:102430000E94320F04C08A8180540E94320F0F9094
:102440000F900F900F90CF91DF910895DF93CF936E
:10245000CDB7DEB7A4970FB6F894DEBF0FBECDBFE1
:102460009CA38BA31AA203C08AA18F5F8AA38AA10F
:10247000282F30E08BA19CA1FC01E20FF31F80818B
:10248000882391F781E089A381E088A31F8E1E8EA7
:10249000B6C00E94CD1180E06E8D0E94FF118BA10D
:1024A0009CA10E9442108E8D482F50E08AA1282FB7
:1024B00030E080E190E0821B930B8417950754F580
:1024C00088A189A31F8E20C089A1815089A381E0A2
:1024D0006F8D0E94FF118AA1882F90E09C012150EE
:1024E000304089A1882F90E0A901481B590BCA01EF
:1024F0009C018BA19CA1FC01E20FF31F80810E9433
:10250000220E8F8D8F5F8F8F89A18823E9F688A196
:102510008F5F88A380E090E0A8E4B2E4898F9A8F6F
:10252000AB8FBC8F698D7A8D8B8D9C8D20E030E0D8
:102530004AEF54E40E941702DC01CB018D8B9E8B85
:10254000AF8BB88F6D897E898F89988D20E030E0C0
:1025500040E85FE30E947D0488232CF481E090E052
:102560009C8B8B8B3FC06D897E898F89988D20E0F5
:102570003FEF4FE757E40E941D0418164CF5698D94
:102580007A8D8B8D9C8D20E030E040E251E40E94FA
:102590001702DC01CB01BC01CD010E944100DC012E
:1025A000CB019C8B8B8B0FC088EC90E09A8B898B36
:1025B00089899A890197F1F79A8B898B8B899C89F4
:1025C00001979C8B8B8B8B899C89009769F714C032
:1025D0006D897E898F89988D0E944100DC01CB0135
:1025E0009C8B8B8B8B899C89988B8F878F85988907
:1025F0000197F1F7988B8F878E8D8F5F8E8F8E8DE1
:10260000803108F446CF81E089A381E088A31F8E42
:102610001D8EB6C00E94CD1181E06D8D0E94FF110C
:102620008BA19CA10E9442108D8D482F50E08AA161
:10263000282F30E080E190E0821B930B84179507F0
:1026400054F588A189A31F8E20C089A1815089A338
:1026500080E06F8D0E94FF118AA1882F90E09C017D
:102660002150304089A1882F90E0A901481B590BC7
:10267000CA019C018BA19CA1FC01E20FF31F808188
:102680000E94220E8F8D8F5F8F8F89A18823E9F69C
:1026900088A18F5F88A380E090E0A8E4B2E48B87F4
:1026A0009C87AD87BE876B857C858D859E8520E068
:1026B00030E04AEF54E40E941702DC01CB018F8323
:1026C0009887A987BA876F81788589859A8520E060
:1026D00030E040E85FE30E947D0488232CF481E031
:1026E00090E09E838D833FC06F81788589859A8530
:1026F00020E03FEF4FE757E40E941D0418164CF509
:102700006B857C858D859E8520E030E040E251E43C
:102710000E941702DC01CB01BC01CD010E944100E7
:10272000DC01CB019E838D830FC088EC90E09C83FD
:102730008B838B819C810197F1F79C838B838D81A7
:102740009E8101979E838D838D819E81009769F77D
:1027500014C06F81788589859A850E944100DC01CB
:10276000CB019E838D838D819E819A83898389810C
:102770009A810197F1F79A8389838D8D8F5F8D8F71
:102780008D8D803108F446CFA4960FB6F894DEBF45
:102790000FBECDBFCF91DF910895DF93CF93CDB71B
:1027A000DEB7E2970FB6F894DEBF0FBECDBF9AAB8F
:1027B00089AB18AA03C088A98F5F88AB88A9282F86
:1027C00030E089A99AA9FC01E20FF31F80818823D8
:1027D00091F789A99AA90E94421080E090E0A8E4AC
:1027E000B2E48FA398A7A9A7BAA76FA178A589A5D6
:1027F0009AA520E030E04AEF54E40E941702DC0181
:10280000CB018BA39CA3ADA3BEA36BA17CA18DA187
:102810009EA120E030E040E85FE30E947D04882331
:102820002CF481E090E09AA389A33FC06BA17CA126
:102830008DA19EA120E03FEF4FE757E40E941D04C9
:1028400018164CF56FA178A589A59AA520E030E06F
:1028500040E251E40E941702DC01CB01BC01CD0132
:102860000E944100DC01CB019AA389A30FC088EC30
:1028700090E098A38F8F8F8D98A10197F1F798A37F
:102880008F8F89A19AA101979AA389A389A19AA15F
:10289000009769F714C06BA17CA18DA19EA10E9435
:1028A0004100DC01CB019AA389A389A19AA19E8F43
:1028B0008D8F8D8D9E8D0197F1F79E8F8D8F88A9BD
:1028C00081508FA788A981508EA71DA68FE08CA765
:1028D000B9C00E94CD119CA581E0692F0E94FF1113
:1028E00089A99AA90E9442108CA5482F552747FD17
:1028F000509588A9282F30E080E190E0821B930B4F
:102900008417950754F58EA58FA71DA620C08FA507
:1029100081508FA780E06DA50E94FF1188A9882FA4
:1029200090E09C01215030408FA5882F90E0A901B4
:10293000481B590BCA019C0189A99AA9FC01E20F05
:10294000F31F80810E94220E8DA58F5F8DA78FA51A
:102950008823E9F68EA581508EA780E090E0A8E458
:10296000B2E4898F9A8FAB8FBC8F698D7A8D8B8DF6
:102970009C8D20E030E04AEF54E40E941702DC0115
:10298000CB018D8B9E8BAF8BB88F6D897E898F89A4
:10299000988D20E030E040E85FE30E947D048823CA
:1029A0002CF481E090E09C8B8B8B3FC06D897E89FD
:1029B0008F89988D20E03FEF4FE757E40E941D0478
:1029C00018164CF5698D7A8D8B8D9C8D20E030E04A
:1029D00040E251E40E941702DC01CB01BC01CD01B1
:1029E0000E944100DC01CB019C8B8B8B0FC088ECDB
:1029F00090E09A8B898B89899A890197F1F79A8B54
:102A0000898B8B899C8901979C8B8B8B8B899C896B
:102A1000009769F714C06D897E898F89988D0E940F
:102A20004100DC01CB019C8B8B8B8B899C89988B23
:102A30008F878F8598890197F1F7988B8F878CA561
:102A400081508CA78CA588230CF043CF88A9815096
:102A50008FA788A981508EA71DA68FE08BA7B9C02C
:102A60000E94CD119BA580E0692F0E94FF1189A9CA
:102A70009AA90E9442108BA5482F552747FD5095D3
:102A800088A9282F30E080E190E0821B930B841707
:102A9000950754F58EA58FA71DA620C08FA5815040
:102AA0008FA781E06DA50E94FF1188A9882F90E073
:102AB0009C01215030408FA5882F90E0A901481B30
:102AC000590BCA019C0189A99AA9FC01E20FF31FC5
:102AD00080810E94220E8DA58F5F8DA78FA58823F0
:102AE000E9F68EA581508EA780E090E0A8E4B2E4DC
:102AF0008B879C87AD87BE876B857C858D859E8502
:102B000020E030E04AEF54E40E941702DC01CB01E0
:102B10008F839887A987BA876F81788589859A85F9
:102B200020E030E040E85FE30E947D0488232CF43D
:102B300081E090E09E838D833FC06F817885898599
:102B40009A8520E03FEF4FE757E40E941D041816D6
:102B50004CF56B857C858D859E8520E030E040E2DC
:102B600051E40E941702DC01CB01BC01CD010E949F
:102B70004100DC01CB019E838D830FC088EC90E087
:102B80009C838B838B819C810197F1F79C838B8342
:102B90008D819E8101979E838D838D819E8100977B
:102BA00069F714C06F81788589859A850E944100F4
:102BB000DC01CB019E838D838D819E819A838983E5
:102BC00089819A810197F1F79A8389838BA5815036
:102BD0008BA78BA588230CF043CFE2960FB6F89411
:102BE000DEBF0FBECDBFCF91DF910895DF93CF93AE
:102BF000CDB7DEB766970FB6F894DEBF0FBECDBF78
:102C00009E8B8D8B1C8A03C08C898F5F8C8B8C89EB
:102C1000282F30E08D899E89FC01E20FF31F80810F
:102C2000882391F781E08B8B1A8A198A188A1F866C
:102C3000C2C00E94CD1188896F850E94FF118D89C5
:102C40009E890E9442108F85482F50E08C89282F42
:102C500030E080E190E0821B930B8417950794F598
:102C6000988981E08927888B8B898A8B198A20C073
:102C70008A8981508A8B888969890E94FF118C8991
:102C8000882F90E09C01215030408A89882F90E065
:102C9000A901481B590BCA019C018D899E89FC0121
:102CA000E20FF31F80810E94220E89898F5F898B3A
:102CB0008A898823E9F68B898F5F8B8B988981E0DD
:102CC0008927888B80E090E0A8E4B2E48B879C871A
:102CD000AD87BE876B857C858D859E8520E030E045
:102CE0004AEF54E40E941702DC01CB018F839887DE
:102CF000A987BA876F81788589859A8520E030E039
:102D000040E85FE30E947D0488232CF481E090E09A
:102D10009E838D833FC06F81788589859A8520E069
:102D20003FEF4FE757E40E941D0418164CF56B85E2
:102D30007C858D859E8520E030E040E251E40E9454
:102D40001702DC01CB01BC01CD010E944100DC0176
:102D5000CB019E838D830FC088EC90E09C838B8396
:102D60008B819C810197F1F79C838B838D819E8160
:102D700001979E838D838D819E81009769F714C092
:102D80006F81788589859A850E944100DC01CB019D
:102D90009E838D838D819E819A83898389819A8187
:102DA0000197F1F79A838983988981E08927888B35
:102DB0008F858F5F8F878F85803108F43ACF669635
:102DC0000FB6F894DEBF0FBECDBFCF91DF9108954F
:102DD000CF92DF92EF92FF920F931F93DF93CF93E7
:102DE000CDB7DEB7C556D1400FB6F894DEBF0FBEE3
:102DF000CDBF0E94280C81E00E94450B0E94C62591
:102E0000FE01EE58FF4F1082FE01EF58FF4F108277
:102E1000FE01E059FF4F1082FE01E159FF4F108281
:102E2000FE01E259FF4F1082FE01E359FF4F10826D
:102E3000FE01E459FF4F1082FE01E559FF4F108259
:102E4000FE01E659FF4F1082FE01E759FF4F108245
:102E5000FE01E859FF4F1082FE01E959FF4F108231
:102E6000FE01ED59FF4F80E090E0A0E0B0E08083EC
:102E70009183A283B383CE018D589F4F28E7FC0135
:102E8000DF01822F1D928A95E9F7CE0185519F4F70
:102E900028E7FC01DF01822F1D928A95E9F7FE01E8
:102EA000EE59FF4F1082FE01EF59FF4F1082FE01D5
:102EB000E05AFF4F1082FE01E859FF4F80818130B8
:102EC00009F071C0FE01E15AFF4F108239C0FE01C6
:102ED000E15AFF4F8081882F90E09E0125513F4F9E
:102EE000880F991F880F991FF901E80FF91F80E0DB
:102EF00090E0A0E0B0E080839183A283B383FE01E1
:102F0000E15AFF4F8081882F90E09E012D583F4F5E
:102F1000880F991F880F991FF901E80FF91F80E0AA
:102F200090E0A0E0B0E080839183A283B383DE01D0
:102F3000A15ABF4FFE01E15AFF4F80818F5F8C93F2
:102F4000FE01E15AFF4FDE01AE59BF4F90818C91D7
:102F5000891708F0BCCFFE01EE59FF4F1082FE0129
:102F6000EF59FF4F1082FE01E359FF4F1082FE011F
:102F7000E259FF4F1082FE01E459FF4F1082FE011B
:102F8000E559FF4F1082FE01E659FF4F1082FE0106
:102F9000E759FF4F1082FE01E859FF4F1082FE01F2
:102FA000E959FF4F108281E00E94570BFE01EE5855
:102FB000FF4F8083FE01EE58FF4F80818F3709F469
:102FC0007ACFFE01EE58FF4F80810E94942588231E
:102FD00031F0FE01E459FF4F81E0808325C0FE01FE
:102FE000EE58FF4F80810E94AA25882331F0FE0110
:102FF000E659FF4F81E0808317C0FE01EE58FF4F76
:103000008081803231F4FE01E759FF4F81E08083F7
:103010000BC0FE01EE58FF4F80818D3329F4FE0175
:10302000E559FF4F81E08083FE01E459FF4F808125
:10303000813059F4FE01E559FF4F8081813029F438
:10304000FE01E459FF4F108236CFFE01E459FF4FD5
:103050008081813009F041C0FE01E459FF4F1082A8
:10306000FE01EE58FF4F80810E94220EDE01AF5913
:10307000BF4FFE01EF59FF4F80818F5F8C93FE01A0
:10308000EE59FF4F8081082F10E0FE01EE58FF4FF0
:103090008081882F90E0A0E0B0E0BC01CD010E94CB
:1030A0005F059B01AC01BE0165517F4FC801880FD0
:1030B000991F880F991FFB01E80FF91F20833183A7
:1030C00042835383DE01AE59BF4FFE01EE59FF4FDD
:1030D00080818F5F8C930C940420FE01E559FF4F93
:1030E0008081813081F4FE01E759FF4F808181307A
:1030F00051F4FE01E859FF4F81E080830E94CD1119
:103100000E94D71181C7FE01E559FF4F80818130B0
:1031100009F026C1FE01E659FF4F8081813009F098
:103120001FC1FE01E559FF4F1082FE01E659FF4F16
:1031300010820E94CD110E94D711FE01ED59FF4F60
:1031400080819181A281B381BC01CD010E94F110E7
:10315000FE01EE58FF4F80810E94220EFE01E25ACE
:10316000FF4F108239C0FE01E25AFF4F8081882F45
:1031700090E09E0125513F4F880F991F880F991F9E
:10318000F901E80FF91F80E090E0A0E0B0E0808353
:103190009183A283B383FE01E25AFF4F8081882F7F
:1031A00090E09E012D583F4F880F991F880F991F5F
:1031B000F901E80FF91F80E090E0A0E0B0E0808323
:1031C0009183A283B383DE01A25ABF4FFE01E25A6C
:1031D000FF4F80818F5F8C93FE01E25AFF4FDE012B
:1031E000AE59BF4F90818C91981708F4BCCF9E01C7
:1031F0002D583F4FFE01ED59FF4F80819181A281F3
:10320000B381F90180839183A283B383FE01EF59D7
:10321000FF4F81E08083FE01ED59FF4F6081718196
:103220008281938120E030E040E050E00E947D0404
:1032300088234CF4DE01AF59BF4FFE01EF59FF4F19
:1032400080818F5F8C93FE01ED59FF4F608171810A
:10325000828193810E940B05DC01CB01BC01CD0171
:103260000E94AD04DC01CB01FE01ED59FF4FBC0112
:10327000CD0120813181428153810E94ED03882359
:1032800051F1DE01AF59BF4FFE01EF59FF4F808171
:103290008C5F8C9320C08E010D591F4FFE01ED599C
:1032A000FF4F608171818281938120E030E040E2B4
:1032B00051E40E941103DC01CB01F801808391836A
:1032C000A283B383DE01AF59BF4FFE01EF59FF4F19
:1032D00080818F5F8C93FE01ED59FF4F608171817A
:1032E000828193810E944100DC01CB010097A105FE
:1032F000B10589F6FE01E359FF4F81E08083FE01AD
:10330000EE59FF4F1082FE01EE59FF4F8081082FCA
:1033100010E0FE01EE58FF4F8081882F90E0A0E082
:10332000B0E0BC01CD010E945F059B01AC01BE0174
:1033300065517F4FC801880F991F880F991FFB01A6
:10334000E80FF91F2083318342835383DE01AE5996
:10335000BF4FFE01EE59FF4F80818F5F8C9354C6A3
:10336000FE01E659FF4F8081813009F040C0FE0127
:10337000E659FF4F1082FE01EE58FF4F80810E94F8
:10338000220EDE01AF59BF4FFE01EF59FF4F808182
:103390008F5F8C93FE01EE59FF4F8081082F10E064
:1033A000FE01EE58FF4F8081882F90E0A0E0B0E052
:1033B000BC01CD010E945F059B01AC01BE016551BE
:1033C0007F4FC801880F991F880F991FFB01E80FD5
:1033D000F91F2083318342835383DE01AE59BF4FEF
:1033E000FE01EE59FF4F80818F5F8C930DC6FE0169
:1033F000E759FF4F8081813009F05CC0FE01E75939
:10340000FF4F1082FE01EF59FF4F8081803121F480
:1034100080E060E10E94FF11FE01EE59FF4F8081C4
:10342000882379F4FE01E359FF4F8081813049F40C
:10343000FE01E859FF4F81E080830E94CD110E9478
:10344000D711FE01EE59FF4F8081882309F433CD57
:103450000E94F51180E20E94220EDE01AE59BF4F9C
:10346000FE01EE59FF4F808181508C93FE01EE5991
:10347000FF4F8081882F90E09E0125513F4F880F9C
:10348000991F880F991FF901E80FF91F80E090E05C
:10349000A0E0B0E080839183A283B3830E94F51102
:1034A000DE01AF59BF4FFE01EF59FF4F80818150C0
:1034B0008C93AAC5FE01E559FF4F8081813009F048
:1034C000A3C5FE01EE59FF4F8081882309F4F3CC98
:1034D000FE01EE58FF4F80810E94220EDE01AF599F
:1034E000BF4FFE01EF59FF4F80818F5F8C93FE012C
:1034F000E551FF4F80819181A281B381BC01CD0153
:1035000020E030E044E352E40E94BD03882309F048
:1035100072C0FE01E551FF4F84819581A681B7817C
:10352000BC01CD010E944100DC01CB010E94942529
:10353000882309F460C0FE01E359FF4F808188238E
:1035400009F059C0FE01E35AFF4F108233C0FE015B
:10355000E35AFF4F8081A82FB0E0FE01E35AFF4FEE
:103560008081882F90E001969E0125513F4F880F62
:10357000991F880F991FF901E80FF91F20813181E8
:1035800042815381BE0165517F4FCD01880F991F44
:10359000880F991FFB01E80FF91F208331834283B5
:1035A0005383DE01A35ABF4FFE01E35AFF4F8081D0
:1035B0008F5F8C93FE01E35AFF4FDE01AE59BF4F80
:1035C00090818C91981718F2FE01E05AFF4F81E02C
:1035D0008083DE01AE59BF4FFE01EE59FF4F80815F
:1035E00081508C93DE01AF59BF4FFE01EF59FF4F61
:1035F000808181508C93FE01E551FF4F8081918144
:10360000A281B381BC01CD010E944100DC01CB014C
:103610000E94AA25882309F4CCC0FE01E359FF4F7C
:103620008081882309F0C5C081E06BE00E94FF1112
:1036300080E690E00E944210FE01EF5AFF4F80E0CA
:1036400090E0AAE7B4E480839183A283B3838E01E0
:10365000035B1F4FFE01EF5AFF4F60817181828132
:10366000938120E030E04AEF54E40E941702DC012D
:10367000CB01F80180839183A283B383FE01E35BD6
:10368000FF4F608171818281938120E030E040E8CA
:103690005FE30E947D04882344F4FE01E55BFF4F55
:1036A00081E090E09183808364C0FE01E35BFF4F83
:1036B000608171818281938120E03FEF4FE757E481
:1036C0000E941D0418160CF043C0FE01EF5AFF4F74
:1036D000608171818281938120E030E040E251E499
:1036E0000E941702DC01CB018E01055B1F4FBC015C
:1036F000CD010E944100DC01CB01F8019183808360
:103700001FC0FE01E75BFF4F88EC90E09183808350
:10371000FE01E75BFF4F808191810197F1F7FE0188
:10372000E75BFF4F91838083DE01A55BBF4FFE0106
:10373000E55BFF4F80819181019711969C938E9359
:10374000FE01E55BFF4F808191810097D1F627C094
:103750008E01055B1F4FFE01E35BFF4F60817181AE
:10376000828193810E944100DC01CB01F8019183A9
:103770008083DE01A95BBF4FFE01E55BFF4F8081C7
:1037800091818D939C93FE01E95BFF4F8081918134
:103790000197F1F7FE01E95BFF4F918380830E945F
:1037A000CD110E94D711FE01E859FF4F81E08083BF
:1037B00082CBFE01E959FF4F81E08083FE01E3598E
:1037C000FF4F8081813041F4FE01E359FF4F1082A9
:1037D000FE01E259FF4F1082FE01E45AFF4F1082B2
:1037E000D2C3FE01E45AFF4F8081882F90E09E01F2
:1037F00025513F4F880F991F880F991FF901E80F36
:10380000F91F80819181A281B381BC01CD010E9409
:103810004100DC01CB010E949425882309F487C074
:10382000FE01E45AFF4F8081082F10E0FE01E45AA8
:10383000FF4F8081882F90E09E0125513F4F880FD8
:10384000991F880F991FF901E80FF91F8081918155
:10385000A281B381BC01CD0120E030E040E452E41C
:103860000E94B901DC01CB019C01AD01BE01655193
:103870007F4FC801880F991F880F991FFB01E80F20
:10388000F91F2083318342835383FE01E259FF4FA6
:103890008081C82EDD24FE01E259FF4F8081882FF0
:1038A00090E09E012D583F4F880F991F880F991F58
:1038B000F901E80FF91F80819181A281B381BC01D8
:1038C000CD0120E030E040E251E40E941702DC012B
:1038D000CB017C018D01FE01E45AFF4F8081882FCE
:1038E00090E09E0125513F4F880F991F880F991F27
:1038F000F901E80FF91F2081318142815381C8010C
:10390000B7010E94EA01DC01CB019C01AD01BE01BF
:103910006D587F4FC601880F991F880F991FFB01B3
:10392000E80FF91F208331834283538390C0FE0147
:10393000E45AFF4F8081882F90E09E0125513F4F30
:10394000880F991F880F991FF901E80FF91F8081CF
:103950009181A281B381BC01CD010E944100DC01B3
:10396000CB010E94AA25882309F471C0FE01E05A08
:10397000FF4F8081813081F5FE01E05AFF4F1082B8
:10398000FE01E259FF4F8081082F10E0FE01E2594D
:10399000FF4F8081882F90E09E012D583F4F880F68
:1039A000991F880F991FF901E80FF91F80819181F4
:1039B000A281B3819C01AD015058BE016D587F4F6B
:1039C000C801880F991F880F991FFB01E80FF91F85
:1039D0002083318342835383DE01A259BF4FFE010E
:1039E000E259FF4F80818F5F8C93FE01E259FF4FB8
:1039F0008081A82FB0E0FE01E45AFF4F8081882F1C
:103A000090E09E0125513F4F880F991F880F991F05
:103A1000F901E80FF91F2081318142815381BE01F4
:103A20006D587F4FCD01880F991F880F991FFB019B
:103A3000E80FF91F2083318342835383DE01A259AB
:103A4000BF4FFE01E259FF4F80818F5F8C93FE01D3
:103A5000E45AFF4F8081882F90E09E0125513F4F0F
:103A6000880F991F880F991FF901E80FF91F8081AE
:103A70009181A281B381BC01CD010E944100DC0192
:103A8000CB010E94AA25882309F4B3C0FE01E45AA1
:103A9000FF4F8081882F90E001969E0125513F4F76
:103AA000880F991F880F991FF901E80FF91F80816E
:103AB0009181A281B381CB59DE4F1882C556D14086
:103AC000BC01CD0120E030E044E352E40E94BD039C
:103AD000882331F4F1E0CB59DE4FF883C556D1404D
:103AE00081E0CB59DE4F9881C556D1408927882384
:103AF00009F07FC0FE01E45AFF4F8081882F90E0DB
:103B000002969E0125513F4F880F991F880F991FDC
:103B1000F901E80FF91F80819181A281B381BC0175
:103B2000CD010E944100DC01CB010E949425882335
:103B300009F45FC0DE01A55ABF4FFE01E45AFF4FF2
:103B400080818F5F8C9333C0FE01E55AFF4F8081E7
:103B5000A82FB0E0FE01E55AFF4F8081882F90E04A
:103B600001969E0125513F4F880F991F880F991F7D
:103B7000F901E80FF91F2081318142815381BE0193
:103B800065517F4FCD01880F991F880F991FFB0149
:103B9000E80FF91F2083318342835383DE01A55A46
:103BA000BF4FFE01E55AFF4F80818F5F8C93FE016E
:103BB000E55AFF4FDE01AE59BF4F90818C919817A7
:103BC00018F2FE01E05AFF4F81E08083DE01AE591A
:103BD000BF4FFE01EE59FF4F808181508C93DE0173
:103BE000AF59BF4FFE01EF59FF4F808181508C9339
:103BF000DAC0FE01E45AFF4F8081882F90E09E01D9
:103C000025513F4F880F991F880F991FF901E80F21
:103C1000F91F80819181A281B381BC01CD010E94F5
:103C20004100DC01CB010E94AA25882309F4BBC016
:103C3000FE01E45AFF4F8081882F90E001969E019B
:103C400025513F4F880F991F880F991FF901E80FE1
:103C5000F91F80819181A281B381BC01CD010E94B5
:103C60004100DC01CB010E94AA25882309F49BC0F6
:103C700081E06BE00E94FF1180E690E00E9442101C
:103C8000FE01ED5BFF4F80E090E0AAE7B4E48083A3
:103C90009183A283B3838E01015C1F4FFE01ED5B14
:103CA000FF4F608171818281938120E030E04AEF93
:103CB00054E40E941702DC01CB01F8018083918358
:103CC000A283B383FE01FF9660817181828193811B
:103CD00020E030E040E85FE30E947D0488232CF47C
:103CE00081E090E09EAF8DAF46C0FE01FF966081FF
:103CF00071818281938120E03FEF4FE757E40E947A
:103D00001D04181664F5FE01ED5BFF4F60817181A3
:103D10008281938120E030E040E251E40E9417026A
:103D2000DC01CB01BC01CD010E944100DC01CB01D3
:103D30009EAF8DAF0FC088EC90E09CAF8BAF8BAD8A
:103D40009CAD0197F1F79CAF8BAF8DAD9EAD019708
:103D50009EAF8DAF8DAD9EAD009769F716C0FE0189
:103D6000FF9660817181828193810E944100DC0114
:103D7000CB019EAF8DAF8DAD9EAD9AAF89AF89ADB2
:103D80009AAD0197F1F79AAF89AF0E94CD110E94C9
:103D9000D711FE01E859FF4F81E08083FE01E95908
:103DA000FF4F1082FBC0FE01E45AFF4F8081882F35
:103DB00090E09E0125513F4F880F991F880F991F52
:103DC000F901E80FF91F80819181A281B381BC01C3
:103DD000CD010E944100DC01CB010E94AA2588236D
:103DE00009F4C8C0FE01E45AFF4F8081882F90E09B
:103DF00001969E0125513F4F880F991F880F991FEB
:103E0000F901E80FF91F80819181A281B381BC0182
:103E1000CD010E944100DC01CB010E94AA2588232C
:103E200009F0A8C0FE01E45AFF4F8081882F90E07E
:103E300001969E0125513F4F880F991F880F991FAA
:103E4000F901E80FF91F80819181A281B381BC0142
:103E5000CD010E944100DC01CB010E949425882302
:103E600009F088C081E06BE00E94FF1180E690E0DD
:103E70000E94421080E090E0AAE7B4E48DAB9EABD4
:103E8000AFABB8AF6DA97EA98FA998AD20E030E0A7
:103E90004AEF54E40E941702DC01CB0189AB9AABD4
:103EA000ABABBCAB69A97AA98BA99CA920E030E097
:103EB00040E85FE30E947D0488232CF481E090E0D9
:103EC00098AB8FA73FC069A97AA98BA99CA920E0CC
:103ED0003FEF4FE757E40E941D0418164CF56DA9FB
:103EE0007EA98FA998AD20E030E040E251E40E9425
:103EF0001702DC01CB01BC01CD010E944100DC01B5
:103F0000CB0198AB8FA70FC088EC90E09EA78DA740
:103F10008DA59EA50197F1F79EA78DA78FA598A9BE
:103F2000019798AB8FA78FA598A9009769F714C040
:103F300069A97AA98BA99CA90E944100DC01CB0147
:103F400098AB8FA78FA598A99CA78BA78BA59CA59D
:103F50000197F1F79CA78BA70E94CD110E94D71162
:103F6000FE01E859FF4F81E08083FE01E959FF4FD0
:103F7000108214C0DE01A45ABF4FFE01E45AFF4F65
:103F800080818F5F8C93FE01E45AFF4FDE01AE59B2
:103F9000BF4F90818C91981708F423CCFE01E05A12
:103FA000FF4F8081813081F5FE01E05AFF4F108282
:103FB000FE01E259FF4F8081082F10E0FE01E25917
:103FC000FF4F8081882F90E09E012D583F4F880F32
:103FD000991F880F991FF901E80FF91F80819181BE
:103FE000A281B3819C01AD015058BE016D587F4F35
:103FF000C801880F991F880F991FFB01E80FF91F4F
:104000002083318342835383FE01E959FF4F80812E
:10401000813009F0F5C4FE01E959FF4F1082DE013D
:10402000AF58BF4FFE01E259FF4F808186958C93B8
:104030003DC4FE01E65AFF4F10825DC2FE01E65A02
:10404000FF4F8081882F90E09E012D583F4F880FB1
:10405000991F880F991FF901E80FF91F808191813D
:10406000A281B381CC59DE4F1882C456D140BC0125
:10407000CD0120E030E048E252E40E94BD038823F5
:1040800031F4F1E0CC59DE4FF883C456D14081E0E1
:10409000CC59DE4F9881C456D1408927882309F036
:1040A000AEC0FE01E65AFF4F8081882F90E08170FC
:1040B0009070982F81E08927882309F0A0C0FE0125
:1040C000E65AFF4F8081882F90E06C010894C10868
:1040D000D108FE01E65AFF4F8081882F90E00197BA
:1040E0009E012D583F4F880F991F880F991FF90186
:1040F000E80FF91FE080F18002811381FE01E65A8A
:10410000FF4F8081882F90E001969E012D583F4FF0
:10411000880F991F880F991FF901E80FF91F208157
:10412000318142815381C801B7010E941702DC012D
:10413000CB019C01AD01BE016D587F4FC601880FB8
:10414000991F880F991FFB01E80FF91F2083318306
:1041500042835383DE01A75ABF4FFE01E65AFF4F49
:1041600080818C9333C0FE01E75AFF4F8081A82FD6
:10417000B0E0FE01E75AFF4F8081882F90E0029661
:104180009E012D583F4F880F991F880F991FF901E5
:10419000E80FF91F2081318142815381BE016D58A2
:1041A0007F4FCD01880F991F880F991FFB01E80FE2
:1041B000F91F2083318342835383DE01A75ABF4F07
:1041C000FE01E75AFF4F80818F5F8C93FE01E75A13
:1041D000FF4FDE01A259BF4F90818C91891718F6CD
:1041E000DE01AF58BF4FFE01EF58FF4F8081815075
:1041F0008C93FE01E059FF4F81E0808387C1FE016F
:10420000E65AFF4F8081882F90E09E012D583F4F46
:10421000880F991F880F991FF901E80FF91F8081F6
:104220009181A281B381BC01CD0120E030E04CE35B
:1042300052E40E94BD03882309F054C1FE01E65AEE
:10424000FF4F8081882F90E081709070882309F45F
:1042500049C1FE01E65AFF4F8081882F90E0019608
:104260009E012D583F4F880F991F880F991FF90104
:10427000E80FF91F80819181A281B381BC01CD013A
:1042800020E030E040E050E00E94BD03882309F0C8
:1042900089C081E06BE00E94FF1180E690E00E94FF
:1042A000421080E090E0AAE7B4E48FA398A7A9A702
:1042B000BAA76FA178A589A59AA520E030E04AEFBA
:1042C00054E40E941702DC01CB018BA39CA3ADA395
:1042D000BEA36BA17CA18DA19EA120E030E040E8AF
:1042E0005FE30E947D0488232CF481E090E09AA390
:1042F00089A33FC06BA17CA18DA19EA120E03FEFCF
:104300004FE757E40E941D0418164CF56FA178A5DD
:1043100089A59AA520E030E040E251E40E9417020E
:10432000DC01CB01BC01CD010E944100DC01CB01CD
:104330009AA389A30FC088EC90E098A38F8F8F8DEC
:1043400098A10197F1F798A38F8F89A19AA101975E
:104350009AA389A389A19AA1009769F714C06BA1B8
:104360007CA18DA19EA10E944100DC01CB019AA3FA
:1043700089A389A19AA19E8F8D8F8D8D9E8D019786
:10438000F1F79E8F8D8F0E94CD110E94D711FE01F3
:10439000E859FF4F81E08083FE01E159FF4F81E042
:1043A0008083B4C0FE01E65AFF4F8081882F90E0E1
:1043B0006C010894C108D108FE01E65AFF4F8081C4
:1043C000882F90E001979E012D583F4F880F991F2D
:1043D000880F991FF901E80FF91FE080F180028131
:1043E0001381FE01E65AFF4F8081882F90E00196ED
:1043F0009E012D583F4F880F991F880F991FF90173
:10440000E80FF91F2081318142815381C801B70132
:104410000E941103DC01CB019C01AD01BE016D586E
:104420007F4FC601880F991F880F991FFB01E80F66
:10443000F91F2083318342835383DE01A85ABF4F83
:10444000FE01E65AFF4F80818C9333C0FE01E85A8B
:10445000FF4F8081A82FB0E0FE01E85AFF4F808116
:10446000882F90E002969E012D583F4F880F991F8C
:10447000880F991FF901E80FF91F208131814281CE
:104480005381BE016D587F4FCD01880F991F880F52
:10449000991FFB01E80FF91F208331834283538367
:1044A000DE01A85ABF4FFE01E85AFF4F80818F5F9F
:1044B0008C93FE01E85AFF4FDE01A259BF4F908155
:1044C0008C91891718F6DE01AF58BF4FFE01EF58E7
:1044D000FF4F808181508C93FE01E059FF4F81E0B6
:1044E000808314C0DE01A65ABF4FFE01E65AFF4F7B
:1044F00080818F5F8C93FE01E65AFF4FDE01A25947
:10450000BF4F90818C91891708F098CDFE01E15939
:10451000FF4F8081813029F4FE01E159FF4F108265
:10452000CCC1FE01E059FF4F8081813029F4FE01AA
:10453000E059FF4F1082BAC1FE01E95AFF4F1082C5
:10454000AAC1FE01E95AFF4F8081882F90E09E01A9
:104550002D583F4F880F991F880F991FF901E80FB9
:10456000F91F80819181A281B381CD59DE4F1882DC
:10457000C356D140BC01CD0120E030E04CE252E412
:104580000E94BD03882331F4A1E0CD59DE4FA883FA
:10459000C356D14081E0CD59DE4FB881C356D140DA
:1045A0008B27882309F0A9C0FE01E95AFF4F8081BB
:1045B000882F90E081709070982F81E08927882360
:1045C00009F09BC0FE01E95AFF4F8081882F90E0DF
:1045D0006C010894C108D108FE01E95AFF4F80819F
:1045E000882F90E001979E012D583F4F880F991F0B
:1045F000880F991FF901E80FF91FE080F18002810F
:104600001381FE01E95AFF4F8081882F90E00196C7
:104610009E012D583F4F880F991F880F991FF90150
:10462000E80FF91F2081318142815381C801B70110
:104630000E94EA01DC01CB019C01AD01BE016D5875
:104640007F4FC601880F991F880F991FFB01E80F44
:10465000F91F2083318342835383DE01AA5ABF4F5F
:10466000FE01E95AFF4F80818C9333C0FE01EA5A64
:10467000FF4F8081A82FB0E0FE01EA5AFF4F8081F2
:10468000882F90E002969E012D583F4F880F991F6A
:10469000880F991FF901E80FF91F208131814281AC
:1046A0005381BE016D587F4FCD01880F991F880F30
:1046B000991FFB01E80FF91F208331834283538345
:1046C000DE01AA5ABF4FFE01EA5AFF4F80818F5F79
:1046D0008C93FE01EA5AFF4FDE01A259BF4F908131
:1046E0008C91891718F6DE01AF58BF4FFE01EF58C5
:1046F000FF4F808181508C93D9C0FE01E95AFF4F52
:104700008081882F90E09E012D583F4F880F991F80
:10471000880F991FF901E80FF91F80819181A2810B
:10472000B381BC01CD0120E030E044E352E40E94BB
:10473000BD03882309F0A6C0FE01E95AFF4F80811E
:10474000882F90E081709070882309F49BC0FE014F
:10475000E95AFF4F8081882F90E06C010894C108CE
:10476000D108FE01E95AFF4F8081882F90E0019720
:104770009E012D583F4F880F991F880F991FF901EF
:10478000E80FF91FE080F18002811381FE01E95AF0
:10479000FF4F8081882F90E001969E012D583F4F5A
:1047A000880F991F880F991FF901E80FF91F2081C1
:1047B000318142815381C801B7010E94B901DC01F6
:1047C000CB019C01AD01BE016D587F4FC601880F22
:1047D000991F880F991FFB01E80FF91F2083318370
:1047E00042835383DE01AB5ABF4FFE01E95AFF4FAC
:1047F00080818C9333C0FE01EB5AFF4F8081A82F3C
:10480000B0E0FE01EB5AFF4F8081882F90E00296C6
:104810009E012D583F4F880F991F880F991FF9014E
:10482000E80FF91F2081318142815381BE016D580B
:104830007F4FCD01880F991F880F991FFB01E80F4B
:10484000F91F2083318342835383DE01AB5ABF4F6C
:10485000FE01EB5AFF4F80818F5F8C93FE01EB5A74
:10486000FF4FDE01A259BF4F90818C91891718F636
:10487000DE01AF58BF4FFE01EF58FF4F80818150DE
:104880008C9314C0DE01A95ABF4FFE01E95AFF4FB5
:1048900080818F5F8C93FE01E95AFF4FDE01A259A0
:1048A000BF4F90818C91891708F04BCEFE01EF58D5
:1048B000FF4F8081882309F0BCCBFE01E859FF4FF0
:1048C0008081882309F09CC0FE01EF59FF4F808151
:1048D0008A3050F0FE01EF59FF4F8081803120F483
:1048E00081E060E00E94FF119E012D593F4FFE01C3
:1048F000ED58FF4F80819181A281B381F9018083BE
:104900009183A283B383FE01ED59FF4F8081918192
:10491000A281B381BC01CD010E94F11080E090E042
:10492000AAEFB3E4898F9A8FAB8FBC8F698D7A8D94
:104930008B8D9C8D20E030E04AEF54E40E941702FA
:10494000DC01CB018D8B9E8BAF8BB88F6D897E89FF
:104950008F89988D20E030E040E85FE30E947D047D
:1049600088232CF481E090E09C8B8B8B3FC06D8979
:104970007E898F89988D20E03FEF4FE757E40E94B2
:104980001D0418164CF5698D7A8D8B8D9C8D20E059
:1049900030E040E251E40E941702DC01CB01BC018F
:1049A000CD010E944100DC01CB019C8B8B8B0FC0A1
:1049B00088EC90E09A8B898B89899A890197F1F725
:1049C0009A8B898B8B899C8901979C8B8B8B8B898C
:1049D0009C89009769F714C06D897E898F89988DAD
:1049E0000E944100DC01CB019C8B8B8B8B899C89C5
:1049F000988B8F878F8598890197F1F7988B8F8790
:104A0000FE01EF59FF4F8081803131F481E060E099
:104A10000E94FF110C945B17FE01EF59FF4F80813C
:104A20008D3111F00C945B170E94CD110E94D711AB
:104A300086E690E00E94421080E090E0AAEFB3E4A6
:104A40008B879C87AD87BE876B857C858D859E8592
:104A500020E030E04AEF54E40E941702DC01CB0171
:104A60008F839887A987BA876F81788589859A858A
:104A700020E030E040E85FE30E947D0488232CF4CE
:104A800081E090E09E838D833FC06F81788589852A
:104A90009A8520E03FEF4FE757E40E941D04181667
:104AA0004CF56B857C858D859E8520E030E040E26D
:104AB00051E40E941702DC01CB01BC01CD010E9430
:104AC0004100DC01CB019E838D830FC088EC90E018
:104AD0009C838B838B819C810197F1F79C838B83D3
:104AE0008D819E8101979E838D838D819E8100970C
:104AF00069F714C06F81788589859A850E94410085
:104B0000DC01CB019E838D838D819E819A83898375
:104B100089819A810197F1F79A8389830E94CD1147
:104B20000E94D7110C945B17DF93CF9300D0CDB7C1
:104B3000DEB789838981803330F089818A3318F424
:104B400081E08A8301C01A828A810F900F90CF91F1
:104B5000DF910895DF93CF9300D0CDB7DEB789837F
:104B600089818B3249F089818D3231F089818A3295
:104B700019F089818F3219F481E08A8301C01A8289
:104B80008A810F900F90CF91DF910895DF93CF939B
:104B9000CDB7DEB72E970FB6F894DEBF0FBECDBFF0
:104BA0008FE690E00E94421081E062E00E94FF11D7
:104BB00080E890E00E94421080E090E0AAE7B4E430
:104BC0008B879C87AD87BE876B857C858D859E8511
:104BD00020E030E04AEF54E40E941702DC01CB01F0
:104BE0008F839887A987BA876F81788589859A8509
:104BF00020E030E040E85FE30E947D0488232CF44D
:104C000081E090E09E838D833FC06F8178858985A8
:104C10009A8520E03FEF4FE757E40E941D041816E5
:104C20004CF56B857C858D859E8520E030E040E2EB
:104C300051E40E941702DC01CB01BC01CD010E94AE
:104C40004100DC01CB019E838D830FC088EC90E096
:104C50009C838B838B819C810197F1F79C838B8351
:104C60008D819E8101979E838D838D819E8100978A
:104C700069F714C06F81788589859A850E94410003
:104C8000DC01CB019E838D838D819E819A838983F4
:104C900089819A810197F1F79A8389830E94CD11C6
:104CA0000E94D7112E960FB6F894DEBF0FBECDBF6F
:104CB000CF91DF91089597FB092E05260ED057FD61
:104CC00004D014D00AD0001C38F45095409530958B
:104CD00021953F4F4F4F5F4F0895F6F79095809580
:104CE000709561957F4F8F4F9F4F0895A1E21A2EC7
:104CF000AA1BBB1BFD010DC0AA1FBB1FEE1FFF1F80
:104D0000A217B307E407F50720F0A21BB30BE40BCF
:104D1000F50B661F771F881F991F1A9469F7609516
:104D20007095809590959B01AC01BD01CF010895D0
:104D30002F923F924F925F926F927F928F929F92AB
:104D4000AF92BF92CF92DF92EF92FF920F931F9399
:104D5000CF93DF93CDB7DEB7CA1BDB0B0FB6F8944A
:104D6000DEBF0FBECDBF09942A88398848885F848A
:104D70006E847D848C849B84AA84B984C884DF80FB
:104D8000EE80FD800C811B81AA81B981CE0FD11DDF
:104D90000FB6F894DEBF0FBECDBFED010895F894B5
:024DA000FFCF43
:104DA2004552524F52004F564552464C4F570053B0
:104DB200696D706C6543616C63756C61746F7200D0
:104DC200427920416E6472657700000000000000A5
:104DD20000000001020203030303040404040404A8
:104DE2000404050505050505050505050505050573
:104DF2000505060606060606060606060606060653
:104E02000606060606060606060606060606060640
:104E12000606070707070707070707070707070722
:104E22000707070707070707070707070707070710
:104E32000707070707070707070707070707070700
:104E420007070707070707070707070707070707F0
:104E520007070808080808080808080808080808D2
:104E620008080808080808080808080808080808C0
:104E720008080808080808080808080808080808B0
:104E820008080808080808080808080808080808A0
:104E92000808080808080808080808080808080890
:104EA2000808080808080808080808080808080880
:104EB2000808080808080808080808080808080870
:104EC2000808080808080808080808080808080860
:104ED20008083738392F3435362A3132332D20300D
:024EE2003D2B66
:00000001FF
